{"abi":[{"type":"function","name":"allTokens","inputs":[{"name":"","type":"uint256","internalType":"uint256"}],"outputs":[{"name":"","type":"address","internalType":"address"}],"stateMutability":"view"},{"type":"function","name":"checkAllFaucets","inputs":[{"name":"user","type":"address","internalType":"address"}],"outputs":[{"name":"symbols","type":"string[]","internalType":"string[]"},{"name":"canClaim","type":"bool[]","internalType":"bool[]"},{"name":"timeUntilNext","type":"uint256[]","internalType":"uint256[]"}],"stateMutability":"view"},{"type":"function","name":"claimAllFaucets","inputs":[],"outputs":[],"stateMutability":"nonpayable"},{"type":"function","name":"deployAllTokens","inputs":[],"outputs":[],"stateMutability":"nonpayable"},{"type":"function","name":"deployed","inputs":[],"outputs":[{"name":"","type":"bool","internalType":"bool"}],"stateMutability":"view"},{"type":"function","name":"getAllTokens","inputs":[],"outputs":[{"name":"","type":"address[]","internalType":"address[]"}],"stateMutability":"view"},{"type":"function","name":"mBTC","inputs":[],"outputs":[{"name":"","type":"address","internalType":"contract MockERC20"}],"stateMutability":"view"},{"type":"function","name":"mBUIDL","inputs":[],"outputs":[{"name":"","type":"address","internalType":"contract MockERC20"}],"stateMutability":"view"},{"type":"function","name":"mDAI","inputs":[],"outputs":[{"name":"","type":"address","internalType":"contract MockERC20"}],"stateMutability":"view"},{"type":"function","name":"mETH","inputs":[],"outputs":[{"name":"","type":"address","internalType":"contract MockERC20"}],"stateMutability":"view"},{"type":"function","name":"mFRAX","inputs":[],"outputs":[{"name":"","type":"address","internalType":"contract MockERC20"}],"stateMutability":"view"},{"type":"function","name":"mOUSG","inputs":[],"outputs":[{"name":"","type":"address","internalType":"contract MockERC20"}],"stateMutability":"view"},{"type":"function","name":"mSTEUR","inputs":[],"outputs":[{"name":"","type":"address","internalType":"contract MockERC20"}],"stateMutability":"view"},{"type":"function","name":"mTBILL","inputs":[],"outputs":[{"name":"","type":"address","internalType":"contract MockERC20"}],"stateMutability":"view"},{"type":"function","name":"mUSDC","inputs":[],"outputs":[{"name":"","type":"address","internalType":"contract MockERC20"}],"stateMutability":"view"},{"type":"function","name":"mUSDT","inputs":[],"outputs":[{"name":"","type":"address","internalType":"contract MockERC20"}],"stateMutability":"view"},{"type":"function","name":"mUSDY","inputs":[],"outputs":[{"name":"","type":"address","internalType":"contract MockERC20"}],"stateMutability":"view"},{"type":"function","name":"mUSDe","inputs":[],"outputs":[{"name":"","type":"address","internalType":"contract MockERC20"}],"stateMutability":"view"},{"type":"function","name":"mWAVAX","inputs":[],"outputs":[{"name":"","type":"address","internalType":"contract MockERC20"}],"stateMutability":"view"},{"type":"function","name":"mWBTC","inputs":[],"outputs":[{"name":"","type":"address","internalType":"contract MockERC20"}],"stateMutability":"view"},{"type":"function","name":"mWETH","inputs":[],"outputs":[{"name":"","type":"address","internalType":"contract MockERC20"}],"stateMutability":"view"},{"type":"function","name":"mWMATIC","inputs":[],"outputs":[{"name":"","type":"address","internalType":"contract MockERC20"}],"stateMutability":"view"},{"type":"function","name":"mWSOL","inputs":[],"outputs":[{"name":"","type":"address","internalType":"contract MockERC20"}],"stateMutability":"view"},{"type":"function","name":"mcbETH","inputs":[],"outputs":[{"name":"","type":"address","internalType":"contract MockERC20"}],"stateMutability":"view"},{"type":"function","name":"mintLiquidity","inputs":[{"name":"token","type":"address","internalType":"address"},{"name":"to","type":"address","internalType":"address"},{"name":"amount","type":"uint256","internalType":"uint256"}],"outputs":[],"stateMutability":"nonpayable"},{"type":"function","name":"mrETH","inputs":[],"outputs":[{"name":"","type":"address","internalType":"contract MockERC20"}],"stateMutability":"view"},{"type":"function","name":"mstETH","inputs":[],"outputs":[{"name":"","type":"address","internalType":"contract MockERC20"}],"stateMutability":"view"},{"type":"function","name":"mwstETH","inputs":[],"outputs":[{"name":"","type":"address","internalType":"contract MockERC20"}],"stateMutability":"view"},{"type":"event","name":"FaucetsClaimed","inputs":[{"name":"user","type":"address","indexed":true,"internalType":"address"},{"name":"tokensClaimed","type":"uint256","indexed":false,"internalType":"uint256"}],"anonymous":false},{"type":"event","name":"LiquidityMinted","inputs":[{"name":"token","type":"address","indexed":true,"internalType":"address"},{"name":"to","type":"address","indexed":true,"internalType":"address"},{"name":"amount","type":"uint256","indexed":false,"internalType":"uint256"}],"anonymous":false},{"type":"event","name":"TokensDeployed","inputs":[{"name":"tokens","type":"address[]","indexed":false,"internalType":"address[]"}],"anonymous":false},{"type":"error","name":"AlreadyDeployed","inputs":[]},{"type":"error","name":"NotDeployed","inputs":[]},{"type":"error","name":"NotTokenOwner","inputs":[]}],"bytecode":{"object":"0x6080604052348015600e575f80fd5b506147428061001c5f395ff3fe608060405234801561000f575f80fd5b50600436106101bb575f3560e01c806371e35a8e116100f3578063b38c364711610093578063d808b8221161006e578063d808b822146103a1578063ee8dd254146103b4578063f89ec5f5146103c7578063f905c15a146103d9575f80fd5b8063b38c364714610368578063cf3ca7a81461037b578063d6e763581461038e575f80fd5b806390c9b30a116100ce57806390c9b30a1461031c57806394eae9581461032f5780639da3cb0a14610342578063a574d79414610355575f80fd5b806371e35a8e146102e35780637b1395a3146102f65780638f008d5814610309575f80fd5b80633c4597611161015e57806358ace2601161013957806358ace260146102ad5780636259d54d146102b5578063633aa38c146102bd578063634282af146102d0575f80fd5b80633c459761146102725780633fc3db59146102855780634abea58b1461029a575f80fd5b80631c58d535116101995780631c58d5351461021557806329e84867146102375780632a5c792a1461024a57806337041dbd1461025f575f80fd5b8063096a4317146101bf5780631822efde146101ef578063199d469a14610202575b5f80fd5b6005546101d2906001600160a01b031681565b6040516001600160a01b0390911681526020015b60405180910390f35b6012546101d2906001600160a01b031681565b600c546101d2906001600160a01b031681565b61022861022336600461359f565b6103f6565b6040516101e69392919061362b565b600a546101d2906001600160a01b031681565b6102526117a5565b6040516101e691906136d7565b6002546101d2906001600160a01b031681565b6004546101d2906001600160a01b031681565b610298610293366004613722565b611805565b005b600f546101d2906001600160a01b031681565b61029861194b565b610298612c95565b6009546101d2906001600160a01b031681565b6101d26102de36600461375c565b61354f565b6001546101d2906001600160a01b031681565b6008546101d2906001600160a01b031681565b600b546101d2906001600160a01b031681565b6013546101d2906001600160a01b031681565b6014546101d2906001600160a01b031681565b6010546101d2906001600160a01b031681565b600d546101d2906001600160a01b031681565b600e546101d2906001600160a01b031681565b6003546101d2906001600160a01b031681565b6006546101d2906001600160a01b031681565b6007546101d2906001600160a01b031681565b6011546101d2906001600160a01b031681565b5f546101d2906001600160a01b031681565b6016546103e69060ff1681565b60405190151581526020016101e6565b6016546060908190819060ff1661042057604051637748251360e01b815260040160405180910390fd5b6040805160158082526102c0820190925290816020015b60608152602001906001900390816104375750506040805160158082526102c08201909252919450602082016102a08036833750506040805160158082526102c082019092529294509050602082016102a080368337019050509050604051806040016040528060058152602001646d5553444360d81b815250835f815181106104c3576104c3613773565b60209081029190910101525f5460405162ec514b60e11b81526001600160a01b038681166004830152909116906301d8a296906024016040805180830381865afa158015610513573d5f803e3d5ffd5b505050506040513d601f19601f820116820180604052508101906105379190613787565b835f8151811061054957610549613773565b60200260200101835f8151811061056257610562613773565b602002602001018281525082151515158152505050604051806040016040528060058152602001641b5554d11560da1b815250836001815181106105a8576105a8613773565b602090810291909101015260015460405162ec514b60e11b81526001600160a01b038681166004830152909116906301d8a296906024016040805180830381865afa1580156105f9573d5f803e3d5ffd5b505050506040513d601f19601f8201168201806040525081019061061d9190613787565b8360018151811061063057610630613773565b602002602001018360018151811061064a5761064a613773565b602002602001018281525082151515158152505050604051806040016040528060048152602001636d44414960e01b8152508360028151811061068f5761068f613773565b602090810291909101015260025460405162ec514b60e11b81526001600160a01b038681166004830152909116906301d8a296906024016040805180830381865afa1580156106e0573d5f803e3d5ffd5b505050506040513d601f19601f820116820180604052508101906107049190613787565b8360028151811061071757610717613773565b602002602001018360028151811061073157610731613773565b602002602001018281525082151515158152505050604051806040016040528060058152602001646d5553446560d81b8152508360038151811061077757610777613773565b602090810291909101015260035460405162ec514b60e11b81526001600160a01b038681166004830152909116906301d8a296906024016040805180830381865afa1580156107c8573d5f803e3d5ffd5b505050506040513d601f19601f820116820180604052508101906107ec9190613787565b836003815181106107ff576107ff613773565b602002602001018360038151811061081957610819613773565b602002602001018281525082151515158152505050604051806040016040528060058152602001640da8ca482b60db1b8152508360048151811061085f5761085f613773565b60209081029190910101526004805460405162ec514b60e11b81526001600160a01b03878116938201939093529116906301d8a296906024016040805180830381865afa1580156108b2573d5f803e3d5ffd5b505050506040513d601f19601f820116820180604052508101906108d69190613787565b836004815181106108e9576108e9613773565b602002602001018360048151811061090357610903613773565b602002602001018281525082151515158152505050604051806040016040528060058152602001646d4f55534760d81b8152508360058151811061094957610949613773565b602090810291909101015260055460405162ec514b60e11b81526001600160a01b038681166004830152909116906301d8a296906024016040805180830381865afa15801561099a573d5f803e3d5ffd5b505050506040513d601f19601f820116820180604052508101906109be9190613787565b836005815181106109d1576109d1613773565b60200260200101836005815181106109eb576109eb613773565b602002602001018281525082151515158152505050604051806040016040528060058152602001646d5553445960d81b81525083600681518110610a3157610a31613773565b602090810291909101015260065460405162ec514b60e11b81526001600160a01b038681166004830152909116906301d8a296906024016040805180830381865afa158015610a82573d5f803e3d5ffd5b505050506040513d601f19601f82011682018060405250810190610aa69190613787565b83600681518110610ab957610ab9613773565b6020026020010183600681518110610ad357610ad3613773565b602002602001018281525082151515158152505050604051806040016040528060068152602001651b509552511360d21b81525083600781518110610b1a57610b1a613773565b602090810291909101015260075460405162ec514b60e11b81526001600160a01b038681166004830152909116906301d8a296906024016040805180830381865afa158015610b6b573d5f803e3d5ffd5b505050506040513d601f19601f82011682018060405250810190610b8f9190613787565b83600781518110610ba257610ba2613773565b6020026020010183600781518110610bbc57610bbc613773565b602002602001018281525082151515158152505050604051806040016040528060068152602001651b551092531360d21b81525083600881518110610c0357610c03613773565b602090810291909101015260085460405162ec514b60e11b81526001600160a01b038681166004830152909116906301d8a296906024016040805180830381865afa158015610c54573d5f803e3d5ffd5b505050506040513d601f19601f82011682018060405250810190610c789190613787565b83600881518110610c8b57610c8b613773565b6020026020010183600881518110610ca557610ca5613773565b6020026020010182815250821515151581525050506040518060400160405280600681526020016536a9aa22aaa960d11b81525083600981518110610cec57610cec613773565b602090810291909101015260095460405162ec514b60e11b81526001600160a01b038681166004830152909116906301d8a296906024016040805180830381865afa158015610d3d573d5f803e3d5ffd5b505050506040513d601f19601f82011682018060405250810190610d619190613787565b83600981518110610d7457610d74613773565b6020026020010183600981518110610d8e57610d8e613773565b602002602001018281525082151515158152505050604051806040016040528060048152602001630da8aa8960e31b81525083600a81518110610dd357610dd3613773565b6020908102919091010152600a5460405162ec514b60e11b81526001600160a01b038681166004830152909116906301d8a296906024016040805180830381865afa158015610e24573d5f803e3d5ffd5b505050506040513d601f19601f82011682018060405250810190610e489190613787565b83600a81518110610e5b57610e5b613773565b6020026020010183600a81518110610e7557610e75613773565b602002602001018281525082151515158152505050604051806040016040528060068152602001650dae6e88aa8960d31b81525083600b81518110610ebc57610ebc613773565b6020908102919091010152600b5460405162ec514b60e11b81526001600160a01b038681166004830152909116906301d8a296906024016040805180830381865afa158015610f0d573d5f803e3d5ffd5b505050506040513d601f19601f82011682018060405250810190610f319190613787565b83600b81518110610f4457610f44613773565b6020026020010183600b81518110610f5e57610f5e613773565b602002602001018281525082151515158152505050604051806040016040528060068152602001650dac6c48aa8960d31b81525083600c81518110610fa557610fa5613773565b6020908102919091010152600c5460405162ec514b60e11b81526001600160a01b038681166004830152909116906301d8a296906024016040805180830381865afa158015610ff6573d5f803e3d5ffd5b505050506040513d601f19601f8201168201806040525081019061101a9190613787565b83600c8151811061102d5761102d613773565b6020026020010183600c8151811061104757611047613773565b602002602001018281525082151515158152505050604051806040016040528060058152602001640dae48aa8960db1b81525083600d8151811061108d5761108d613773565b6020908102919091010152600d5460405162ec514b60e11b81526001600160a01b038681166004830152909116906301d8a296906024016040805180830381865afa1580156110de573d5f803e3d5ffd5b505050506040513d601f19601f820116820180604052508101906111029190613787565b83600d8151811061111557611115613773565b6020026020010183600d8151811061112f5761112f613773565b602002602001018281525082151515158152505050604051806040016040528060078152602001660daeee6e88aa8960cb1b81525083600e8151811061117757611177613773565b6020908102919091010152600e5460405162ec514b60e11b81526001600160a01b038681166004830152909116906301d8a296906024016040805180830381865afa1580156111c8573d5f803e3d5ffd5b505050506040513d601f19601f820116820180604052508101906111ec9190613787565b83600e815181106111ff576111ff613773565b6020026020010183600e8151811061121957611219613773565b602002602001018281525082151515158152505050604051806040016040528060058152602001646d5742544360d81b81525083600f8151811061125f5761125f613773565b6020908102919091010152600f5460405162ec514b60e11b81526001600160a01b038681166004830152909116906301d8a296906024016040805180830381865afa1580156112b0573d5f803e3d5ffd5b505050506040513d601f19601f820116820180604052508101906112d49190613787565b83600f815181106112e7576112e7613773565b6020026020010183600f8151811061130157611301613773565b602002602001018281525082151515158152505050604051806040016040528060058152602001640daae8aa8960db1b8152508360108151811061134757611347613773565b602090810291909101015260105460405162ec514b60e11b81526001600160a01b038681166004830152909116906301d8a296906024016040805180830381865afa158015611398573d5f803e3d5ffd5b505050506040513d601f19601f820116820180604052508101906113bc9190613787565b836010815181106113cf576113cf613773565b60200260200101836010815181106113e9576113e9613773565b602002602001018281525082151515158152505050604051806040016040528060058152602001641b55d4d3d360da1b8152508360118151811061142f5761142f613773565b602090810291909101015260115460405162ec514b60e11b81526001600160a01b038681166004830152909116906301d8a296906024016040805180830381865afa158015611480573d5f803e3d5ffd5b505050506040513d601f19601f820116820180604052508101906114a49190613787565b836011815181106114b7576114b7613773565b60200260200101836011815181106114d1576114d1613773565b602002602001018281525082151515158152505050604051806040016040528060068152602001650daae82ac82b60d31b8152508360128151811061151857611518613773565b602090810291909101015260125460405162ec514b60e11b81526001600160a01b038681166004830152909116906301d8a296906024016040805180830381865afa158015611569573d5f803e3d5ffd5b505050506040513d601f19601f8201168201806040525081019061158d9190613787565b836012815181106115a0576115a0613773565b60200260200101836012815181106115ba576115ba613773565b602002602001018281525082151515158152505050604051806040016040528060078152602001666d574d4154494360c81b8152508360138151811061160257611602613773565b602090810291909101015260135460405162ec514b60e11b81526001600160a01b038681166004830152909116906301d8a296906024016040805180830381865afa158015611653573d5f803e3d5ffd5b505050506040513d601f19601f820116820180604052508101906116779190613787565b8360138151811061168a5761168a613773565b60200260200101836013815181106116a4576116a4613773565b602002602001018281525082151515158152505050604051806040016040528060048152602001636d42544360e01b815250836014815181106116e9576116e9613773565b602090810291909101015260145460405162ec514b60e11b81526001600160a01b038681166004830152909116906301d8a296906024016040805180830381865afa15801561173a573d5f803e3d5ffd5b505050506040513d601f19601f8201168201806040525081019061175e9190613787565b8360148151811061177157611771613773565b602002602001018360148151811061178b5761178b613773565b602090810291909101019190915290151590529193909250565b606060158054806020026020016040519081016040528092919081815260200182805480156117fb57602002820191905f5260205f20905b81546001600160a01b031681526001909101906020018083116117dd575b5050505050905090565b60165460ff1661182857604051637748251360e01b815260040160405180910390fd5b5f805b60155481101561187c57846001600160a01b03166015828154811061185257611852613773565b5f918252602090912001546001600160a01b031603611874576001915061187c565b60010161182b565b508061189b576040516359dc379f60e01b815260040160405180910390fd5b6040516340c10f1960e01b81526001600160a01b038481166004830152602482018490528516906340c10f19906044015f604051808303815f87803b1580156118e2575f80fd5b505af11580156118f4573d5f803e3d5ffd5b50505050826001600160a01b0316846001600160a01b03167fec89d80a36947288037745287dde87d62cd8c141d5323130b3d26d97d84004c78460405161193d91815260200190565b60405180910390a350505050565b60165460ff161561196f5760405163a6ef0ba160e01b815260040160405180910390fd5b60066402540be4003060405161198490613577565b60a0808252600f908201527f4d616e7475612055534420436f696e000000000000000000000000000000000060c082015260e060208201819052600590820152646d5553444360d81b61010082015260ff909316604084015260608301919091526001600160a01b0316608082015261012001604051809103905ff080158015611a10573d5f803e3d5ffd5b505f806101000a8154816001600160a01b0302191690836001600160a01b0316021790555060066402540be40030604051611a4a90613577565b60a0808252600d908201527f4d616e747561205465746865720000000000000000000000000000000000000060c082015260e060208201819052600590820152641b5554d11560da1b61010082015260ff909316604084015260608301919091526001600160a01b0316608082015261012001604051809103905ff080158015611ad6573d5f803e3d5ffd5b5060015f6101000a8154816001600160a01b0302191690836001600160a01b03160217905550601269021e19e0c9bab240000030604051611b1690613577565b60a0808252600a908201527f4d616e747561204441490000000000000000000000000000000000000000000060c082015260e060208201819052600490820152636d44414960e01b61010082015260ff909316604084015260608301919091526001600160a01b0316608082015261012001604051809103905ff080158015611ba1573d5f803e3d5ffd5b5060025f6101000a8154816001600160a01b0302191690836001600160a01b03160217905550601269021e19e0c9bab240000030604051611be190613577565b60a0808252600b908201527f4d616e747561205553446500000000000000000000000000000000000000000060c082015260e060208201819052600590820152646d5553446560d81b61010082015260ff909316604084015260608301919091526001600160a01b0316608082015261012001604051809103905ff080158015611c6d573d5f803e3d5ffd5b5060035f6101000a8154816001600160a01b0302191690836001600160a01b03160217905550601269021e19e0c9bab240000030604051611cad90613577565b60a0808252600b908201527f4d616e747561204652415800000000000000000000000000000000000000000060c082015260e060208201819052600590820152640da8ca482b60db1b61010082015260ff909316604084015260608301919091526001600160a01b0316608082015261012001604051809103905ff080158015611d39573d5f803e3d5ffd5b5060045f6101000a8154816001600160a01b0302191690836001600160a01b03160217905550601268056bc75e2d6310000030604051611d7890613577565b60a0808252600b908201527f4d616e747561204f55534700000000000000000000000000000000000000000060c082015260e060208201819052600590820152646d4f55534760d81b61010082015260ff909316604084015260608301919091526001600160a01b0316608082015261012001604051809103905ff080158015611e04573d5f803e3d5ffd5b5060055f6101000a8154816001600160a01b0302191690836001600160a01b03160217905550601269021e19e0c9bab240000030604051611e4490613577565b60a0808252600b908201527f4d616e747561205553445900000000000000000000000000000000000000000060c082015260e060208201819052600590820152646d5553445960d81b61010082015260ff909316604084015260608301919091526001600160a01b0316608082015261012001604051809103905ff080158015611ed0573d5f803e3d5ffd5b506006805473ffffffffffffffffffffffffffffffffffffffff19166001600160a01b03929092169190911781556040516402540be400903090611f1390613577565b60a0808252600c908201527f4d616e74756120425549444c000000000000000000000000000000000000000060c082015260e060208201819052600690820152651b509552511360d21b61010082015260ff909316604084015260608301919091526001600160a01b0316608082015261012001604051809103905ff080158015611fa0573d5f803e3d5ffd5b5060075f6101000a8154816001600160a01b0302191690836001600160a01b03160217905550601269021e19e0c9bab240000030604051611fe090613577565b60a0808252600c908201527f4d616e747561205442494c4c000000000000000000000000000000000000000060c082015260e060208201819052600690820152651b551092531360d21b61010082015260ff909316604084015260608301919091526001600160a01b0316608082015261012001604051809103905ff08015801561206d573d5f803e3d5ffd5b5060085f6101000a8154816001600160a01b0302191690836001600160a01b03160217905550601269021e19e0c9bab2400000306040516120ad90613577565b60a0808252600c908201527f4d616e747561207374455552000000000000000000000000000000000000000060c082015260e0602082018190526006908201526536a9aa22aaa960d11b61010082015260ff909316604084015260608301919091526001600160a01b0316608082015261012001604051809103905ff08015801561213a573d5f803e3d5ffd5b5060095f6101000a8154816001600160a01b0302191690836001600160a01b031602179055506012678ac7230489e800003060405161217890613577565b60a0808252600a908201527f4d616e747561204554480000000000000000000000000000000000000000000060c082015260e060208201819052600490820152630da8aa8960e31b61010082015260ff909316604084015260608301919091526001600160a01b0316608082015261012001604051809103905ff080158015612203573d5f803e3d5ffd5b50600a5f6101000a8154816001600160a01b0302191690836001600160a01b031602179055506012678ac7230489e800003060405161224190613577565b60a0808252600c908201527f4d616e747561207374455448000000000000000000000000000000000000000060c082015260e060208201819052600690820152650dae6e88aa8960d31b61010082015260ff909316604084015260608301919091526001600160a01b0316608082015261012001604051809103905ff0801580156122ce573d5f803e3d5ffd5b50600b5f6101000a8154816001600160a01b0302191690836001600160a01b031602179055506012678ac7230489e800003060405161230c90613577565b60a0808252600c908201527f4d616e747561206362455448000000000000000000000000000000000000000060c082015260e060208201819052600690820152650dac6c48aa8960d31b61010082015260ff909316604084015260608301919091526001600160a01b0316608082015261012001604051809103905ff080158015612399573d5f803e3d5ffd5b50600c5f6101000a8154816001600160a01b0302191690836001600160a01b031602179055506012678ac7230489e80000306040516123d790613577565b60a0808252600b908201527f4d616e747561207245544800000000000000000000000000000000000000000060c082015260e060208201819052600590820152640dae48aa8960db1b61010082015260ff909316604084015260608301919091526001600160a01b0316608082015261012001604051809103905ff080158015612463573d5f803e3d5ffd5b50600d5f6101000a8154816001600160a01b0302191690836001600160a01b031602179055506012678ac7230489e80000306040516124a190613577565b60a0808252600d908201527f4d616e747561207773744554480000000000000000000000000000000000000060c082015260e060208201819052600790820152660daeee6e88aa8960cb1b61010082015260ff909316604084015260608301919091526001600160a01b0316608082015261012001604051809103905ff08015801561252f573d5f803e3d5ffd5b50600e5f6101000a8154816001600160a01b0302191690836001600160a01b0316021790555060086305f5e1003060405161256990613577565b60a08082526012908201527f4d616e747561205772617070656420425443000000000000000000000000000060c082015260e060208201819052600590820152646d5742544360d81b61010082015260ff909316604084015260608301919091526001600160a01b0316608082015261012001604051809103905ff0801580156125f5573d5f803e3d5ffd5b50600f5f6101000a8154816001600160a01b0302191690836001600160a01b031602179055506012678ac7230489e800003060405161263390613577565b60a08082526012908201527f4d616e747561205772617070656420455448000000000000000000000000000060c082015260e060208201819052600590820152640daae8aa8960db1b61010082015260ff909316604084015260608301919091526001600160a01b0316608082015261012001604051809103905ff0801580156126bf573d5f803e3d5ffd5b5060105f6101000a8154816001600160a01b0302191690836001600160a01b03160217905550600964174876e800306040516126fa90613577565b60a08082526012908201527f4d616e747561205772617070656420534f4c000000000000000000000000000060c082015260e060208201819052600590820152641b55d4d3d360da1b61010082015260ff909316604084015260608301919091526001600160a01b0316608082015261012001604051809103905ff080158015612786573d5f803e3d5ffd5b5060115f6101000a8154816001600160a01b0302191690836001600160a01b03160217905550601268056bc75e2d63100000306040516127c590613577565b60a08082526013908201527f4d616e747561205772617070656420415641580000000000000000000000000060c082015260e060208201819052600690820152650daae82ac82b60d31b61010082015260ff909316604084015260608301919091526001600160a01b0316608082015261012001604051809103905ff080158015612852573d5f803e3d5ffd5b506012805473ffffffffffffffffffffffffffffffffffffffff19166001600160a01b0392909216919091178155604051683635c9adc5dea0000090309061289990613577565b60a08082526014908201527f4d616e7475612057726170706564204d4154494300000000000000000000000060c082015260e060208201819052600790820152666d574d4154494360c81b61010082015260ff909316604084015260608301919091526001600160a01b0316608082015261012001604051809103905ff080158015612927573d5f803e3d5ffd5b5060135f6101000a8154816001600160a01b0302191690836001600160a01b0316021790555060086305f5e1003060405161296190613577565b60a0808252600a908201527f4d616e747561204254430000000000000000000000000000000000000000000060c082015260e060208201819052600490820152636d42544360e01b61010082015260ff909316604084015260608301919091526001600160a01b0316608082015261012001604051809103905ff0801580156129ec573d5f803e3d5ffd5b50601480546001600160a01b0392831673ffffffffffffffffffffffffffffffffffffffff199182161782555f80546015805460018181018355938290527f55f448fdea98c4d29eb340757ef0a66cd03dbb9538908a6a81d96026b71ec47590810180548616938816939093179092558254815480850183558301805486169188169190911790556002548154808501835583018054861691881691909117905560035481548085018355830180548616918816919091179055600454815480850183558301805486169188169190911790556005548154808501835583018054861691881691909117905560065481548085018355830180548616918816919091179055600754815480850183558301805486169188169190911790556008548154808501835583018054861691881691909117905560095481548085018355830180548616918816919091179055600a5481548085018355830180548616918816919091179055600b5481548085018355830180548616918816919091179055600c5481548085018355830180548616918816919091179055600d5481548085018355830180548616918816919091179055600e5481548085018355830180548616918816919091179055600f548154808501835583018054861691881691909117905560105481548085018355830180548616918816919091179055601154815480850183558301805486169188169190911790556012548154808501835583018054861691881691909117905560135481548085018355830180548616918816919091179055935484548084018655909101805490931694169390931790556016805460ff19169092179091556040517f97719712201ffab734d58d54e40ddf4254941a1a09ac8c4fc11cff61cb61e3c091612c8b916137b7565b60405180910390a1565b60165460ff16612cb857604051637748251360e01b815260040160405180910390fd5b5f805460405163801a476560e01b81523360048201526001600160a01b039091169063801a4765906024015f604051808303815f87803b158015612cfa575f80fd5b505af1925050508015612d0b575060015b15612d1e5780612d1a816137fa565b9150505b60015460405163801a476560e01b81523360048201526001600160a01b039091169063801a4765906024015f604051808303815f87803b158015612d60575f80fd5b505af1925050508015612d71575060015b15612d845780612d80816137fa565b9150505b60025460405163801a476560e01b81523360048201526001600160a01b039091169063801a4765906024015f604051808303815f87803b158015612dc6575f80fd5b505af1925050508015612dd7575060015b15612dea5780612de6816137fa565b9150505b60035460405163801a476560e01b81523360048201526001600160a01b039091169063801a4765906024015f604051808303815f87803b158015612e2c575f80fd5b505af1925050508015612e3d575060015b15612e505780612e4c816137fa565b9150505b6004805460405163801a476560e01b815233928101929092526001600160a01b03169063801a4765906024015f604051808303815f87803b158015612e93575f80fd5b505af1925050508015612ea4575060015b15612eb75780612eb3816137fa565b9150505b60055460405163801a476560e01b81523360048201526001600160a01b039091169063801a4765906024015f604051808303815f87803b158015612ef9575f80fd5b505af1925050508015612f0a575060015b15612f1d5780612f19816137fa565b9150505b60065460405163801a476560e01b81523360048201526001600160a01b039091169063801a4765906024015f604051808303815f87803b158015612f5f575f80fd5b505af1925050508015612f70575060015b15612f835780612f7f816137fa565b9150505b60075460405163801a476560e01b81523360048201526001600160a01b039091169063801a4765906024015f604051808303815f87803b158015612fc5575f80fd5b505af1925050508015612fd6575060015b15612fe95780612fe5816137fa565b9150505b60085460405163801a476560e01b81523360048201526001600160a01b039091169063801a4765906024015f604051808303815f87803b15801561302b575f80fd5b505af192505050801561303c575060015b1561304f578061304b816137fa565b9150505b60095460405163801a476560e01b81523360048201526001600160a01b039091169063801a4765906024015f604051808303815f87803b158015613091575f80fd5b505af19250505080156130a2575060015b156130b557806130b1816137fa565b9150505b600a5460405163801a476560e01b81523360048201526001600160a01b039091169063801a4765906024015f604051808303815f87803b1580156130f7575f80fd5b505af1925050508015613108575060015b1561311b5780613117816137fa565b9150505b600b5460405163801a476560e01b81523360048201526001600160a01b039091169063801a4765906024015f604051808303815f87803b15801561315d575f80fd5b505af192505050801561316e575060015b15613181578061317d816137fa565b9150505b600c5460405163801a476560e01b81523360048201526001600160a01b039091169063801a4765906024015f604051808303815f87803b1580156131c3575f80fd5b505af19250505080156131d4575060015b156131e757806131e3816137fa565b9150505b600d5460405163801a476560e01b81523360048201526001600160a01b039091169063801a4765906024015f604051808303815f87803b158015613229575f80fd5b505af192505050801561323a575060015b1561324d5780613249816137fa565b9150505b600e5460405163801a476560e01b81523360048201526001600160a01b039091169063801a4765906024015f604051808303815f87803b15801561328f575f80fd5b505af19250505080156132a0575060015b156132b357806132af816137fa565b9150505b600f5460405163801a476560e01b81523360048201526001600160a01b039091169063801a4765906024015f604051808303815f87803b1580156132f5575f80fd5b505af1925050508015613306575060015b156133195780613315816137fa565b9150505b60105460405163801a476560e01b81523360048201526001600160a01b039091169063801a4765906024015f604051808303815f87803b15801561335b575f80fd5b505af192505050801561336c575060015b1561337f578061337b816137fa565b9150505b60115460405163801a476560e01b81523360048201526001600160a01b039091169063801a4765906024015f604051808303815f87803b1580156133c1575f80fd5b505af19250505080156133d2575060015b156133e557806133e1816137fa565b9150505b60125460405163801a476560e01b81523360048201526001600160a01b039091169063801a4765906024015f604051808303815f87803b158015613427575f80fd5b505af1925050508015613438575060015b1561344b5780613447816137fa565b9150505b60135460405163801a476560e01b81523360048201526001600160a01b039091169063801a4765906024015f604051808303815f87803b15801561348d575f80fd5b505af192505050801561349e575060015b156134b157806134ad816137fa565b9150505b60145460405163801a476560e01b81523360048201526001600160a01b039091169063801a4765906024015f604051808303815f87803b1580156134f3575f80fd5b505af1925050508015613504575060015b156135175780613513816137fa565b9150505b60405181815233907f3d21ed5692d02e24b9c4ae33e23623e761584b4606e90b295d853ee71031939d9060200160405180910390a250565b6015818154811061355e575f80fd5b5f918252602090912001546001600160a01b0316905081565b610eee8061381f83390190565b80356001600160a01b038116811461359a575f80fd5b919050565b5f602082840312156135af575f80fd5b6135b882613584565b9392505050565b5f8151808452602084019350602083015f5b828110156135f157815115158652602095860195909101906001016135d1565b5093949350505050565b5f8151808452602084019350602083015f5b828110156135f157815186526020958601959091019060010161360d565b5f606082016060835280865180835260808501915060808160051b8601019250602088015f5b828110156136a357607f19878603018452815180518087528060208301602089015e5f602082890101526020601f19601f83011688010196505050602082019150602084019350600181019050613651565b5050505082810360208401526136b981866135bf565b905082810360408401526136cd81856135fb565b9695505050505050565b602080825282518282018190525f918401906040840190835b818110156137175783516001600160a01b03168352602093840193909201916001016136f0565b509095945050505050565b5f805f60608486031215613734575f80fd5b61373d84613584565b925061374b60208501613584565b929592945050506040919091013590565b5f6020828403121561376c575f80fd5b5035919050565b634e487b7160e01b5f52603260045260245ffd5b5f8060408385031215613798575f80fd5b825180151581146137a7575f80fd5b6020939093015192949293505050565b602080825282548282018190525f848152918220906040840190835b818110156137175783546001600160a01b03168352600193840193602090930192016137d3565b5f6001820161381757634e487b7160e01b5f52601160045260245ffd5b506001019056fe60c060405234801561000f575f80fd5b50604051610eee380380610eee83398101604081905261002e91610186565b808585600361003d83826102af565b50600461004a82826102af565b5050506001600160a01b03811661007a57604051631e4fbdf760e01b81525f600482015260240160405180910390fd5b61008381610098565b505060ff90911660805260a052506103699050565b600580546001600160a01b038381166001600160a01b0319831681179093556040519116919082907f8be0079c531659141344cd1fd0a4f28419497f9722a3daafe3b4186f6b6457e0905f90a35050565b634e487b7160e01b5f52604160045260245ffd5b5f82601f83011261010c575f80fd5b81516001600160401b03811115610125576101256100e9565b604051601f8201601f19908116603f011681016001600160401b0381118282101715610153576101536100e9565b60405281815283820160200185101561016a575f80fd5b8160208501602083015e5f918101602001919091529392505050565b5f805f805f60a0868803121561019a575f80fd5b85516001600160401b038111156101af575f80fd5b6101bb888289016100fd565b602088015190965090506001600160401b038111156101d8575f80fd5b6101e4888289016100fd565b945050604086015160ff811681146101fa575f80fd5b6060870151608088015191945092506001600160a01b038116811461021d575f80fd5b809150509295509295909350565b600181811c9082168061023f57607f821691505b60208210810361025d57634e487b7160e01b5f52602260045260245ffd5b50919050565b601f8211156102aa57805f5260205f20601f840160051c810160208510156102885750805b601f840160051c820191505b818110156102a7575f8155600101610294565b50505b505050565b81516001600160401b038111156102c8576102c86100e9565b6102dc816102d6845461022b565b84610263565b6020601f82116001811461030e575f83156102f75750848201515b5f19600385901b1c1916600184901b1784556102a7565b5f84815260208120601f198516915b8281101561033d578785015182556020948501946001909201910161031d565b508482101561035a57868401515f19600387901b60f8161c191681555b50505050600190811b01905550565b60805160a051610b566103985f395f81816102b201528181610725015261074f01525f6101e00152610b565ff3fe608060405234801561000f575f80fd5b5060043610610149575f3560e01c80637d1d5d19116100c75780639c2814301161007d578063dd62ed3e11610063578063dd62ed3e146102e7578063de5f72fd1461031f578063f2fde38b14610327575f80fd5b80639c281430146102ad578063a9059cbb146102d4575f80fd5b80638a877205116100ad5780638a8772051461026b5780638da5cb5b1461028a57806395d89b41146102a5575f80fd5b80637d1d5d191461024f578063801a476514610258575f80fd5b806323b872dd1161011c57806340c10f191161010257806340c10f191461020a57806370a082311461021f578063715018a614610247575f80fd5b806323b872dd146101c6578063313ce567146101d9575f80fd5b806301d8a2961461014d57806306fdde031461017c578063095ea7b31461019157806318160ddd146101b4575b5f80fd5b61016061015b3660046109c6565b61033a565b6040805192151583526020830191909152015b60405180910390f35b6101846103a2565b60405161017391906109e6565b6101a461019f366004610a1b565b610432565b6040519015158152602001610173565b6002545b604051908152602001610173565b6101a46101d4366004610a43565b61044b565b60405160ff7f0000000000000000000000000000000000000000000000000000000000000000168152602001610173565b61021d610218366004610a1b565b61046e565b005b6101b861022d3660046109c6565b6001600160a01b03165f9081526020819052604090205490565b61021d610484565b6101b8610e1081565b61021d6102663660046109c6565b610497565b6101b86102793660046109c6565b60066020525f908152604090205481565b6005546040516001600160a01b039091168152602001610173565b6101846104ab565b6101b87f000000000000000000000000000000000000000000000000000000000000000081565b6101a46102e2366004610a1b565b6104ba565b6101b86102f5366004610a7d565b6001600160a01b039182165f90815260016020908152604080832093909416825291909152205490565b61021d6104c7565b61021d6103353660046109c6565b6104d0565b6001600160a01b0381165f90815260066020526040812054819080820361036757506001935f9350915050565b5f6103728242610ac2565b9050610e10811061038a57506001945f945092505050565b5f61039782610e10610ac2565b935093505050915091565b6060600380546103b190610ad5565b80601f01602080910402602001604051908101604052809291908181526020018280546103dd90610ad5565b80156104285780601f106103ff57610100808354040283529160200191610428565b820191905f5260205f20905b81548152906001019060200180831161040b57829003601f168201915b5050505050905090565b5f3361043f81858561050f565b60019150505b92915050565b5f33610458858285610521565b61046385858561059d565b506001949350505050565b6104766105fa565b6104808282610627565b5050565b61048c6105fa565b6104955f61065b565b565b61049f6105fa565b6104a8816106c4565b50565b6060600480546103b190610ad5565b5f3361043f81858561059d565b610495336106c4565b6104d86105fa565b6001600160a01b03811661050657604051631e4fbdf760e01b81525f60048201526024015b60405180910390fd5b6104a88161065b565b61051c83838360016107b3565b505050565b6001600160a01b038381165f908152600160209081526040808320938616835292905220545f19811015610597578181101561058957604051637dc7a0d960e11b81526001600160a01b038416600482015260248101829052604481018390526064016104fd565b61059784848484035f6107b3565b50505050565b6001600160a01b0383166105c657604051634b637e8f60e11b81525f60048201526024016104fd565b6001600160a01b0382166105ef5760405163ec442f0560e01b81525f60048201526024016104fd565b61051c838383610885565b6005546001600160a01b031633146104955760405163118cdaa760e01b81523360048201526024016104fd565b6001600160a01b0382166106505760405163ec442f0560e01b81525f60048201526024016104fd565b6104805f8383610885565b600580546001600160a01b038381167fffffffffffffffffffffffff0000000000000000000000000000000000000000831681179093556040519116919082907f8be0079c531659141344cd1fd0a4f28419497f9722a3daafe3b4186f6b6457e0905f90a35050565b5f806106cf8361033a565b91509150816106f457604051639ad22e0f60e01b8152600481018290526024016104fd565b6001600160a01b0383165f908152600660205260408120429081905561071d90610e1090610b0d565b9050610749847f0000000000000000000000000000000000000000000000000000000000000000610627565b604080517f00000000000000000000000000000000000000000000000000000000000000008152602081018390526001600160a01b038616917fa19a7d2b5bf6a987a66e0eac8a6eb2dbd34ae6a43285849af788b224268ec022910160405180910390a250505050565b6001600160a01b0384166107dc5760405163e602df0560e01b81525f60048201526024016104fd565b6001600160a01b03831661080557604051634a1406b160e11b81525f60048201526024016104fd565b6001600160a01b038085165f908152600160209081526040808320938716835292905220829055801561059757826001600160a01b0316846001600160a01b03167f8c5be1e5ebec7d5bd14f71427d1e84f3dd0314c0f7b2291e5b200ac8c7c3b9258460405161087791815260200190565b60405180910390a350505050565b6001600160a01b0383166108af578060025f8282546108a49190610b0d565b9091555061091f9050565b6001600160a01b0383165f90815260208190526040902054818110156109015760405163391434e360e21b81526001600160a01b038516600482015260248101829052604481018390526064016104fd565b6001600160a01b0384165f9081526020819052604090209082900390555b6001600160a01b03821661093b57600280548290039055610959565b6001600160a01b0382165f9081526020819052604090208054820190555b816001600160a01b0316836001600160a01b03167fddf252ad1be2c89b69c2b068fc378daa952ba7f163c4a11628f55a4df523b3ef8360405161099e91815260200190565b60405180910390a3505050565b80356001600160a01b03811681146109c1575f80fd5b919050565b5f602082840312156109d6575f80fd5b6109df826109ab565b9392505050565b602081525f82518060208401528060208501604085015e5f604082850101526040601f19601f83011684010191505092915050565b5f8060408385031215610a2c575f80fd5b610a35836109ab565b946020939093013593505050565b5f805f60608486031215610a55575f80fd5b610a5e846109ab565b9250610a6c602085016109ab565b929592945050506040919091013590565b5f8060408385031215610a8e575f80fd5b610a97836109ab565b9150610aa5602084016109ab565b90509250929050565b634e487b7160e01b5f52601160045260245ffd5b8181038181111561044557610445610aae565b600181811c90821680610ae957607f821691505b602082108103610b0757634e487b7160e01b5f52602260045260245ffd5b50919050565b8082018082111561044557610445610aae56fea2646970667358221220d8bce1213c83a423e6fd7913d491c6ce5e13c5e90fad6313144751ad92053c9b64736f6c634300081a0033a26469706673582212204d606dc21e14993da2ab89609f41c624038b413b043c4314a9cc39fceb1d5aef64736f6c634300081a0033","linkReferences":{}},"methodIdentifiers":{"allTokens(uint256)":"634282af","checkAllFaucets(address)":"1c58d535","claimAllFaucets()":"6259d54d","deployAllTokens()":"58ace260","deployed()":"f905c15a","getAllTokens()":"2a5c792a","mBTC()":"94eae958","mBUIDL()":"d808b822","mDAI()":"37041dbd","mETH()":"29e84867","mFRAX()":"3c459761","mOUSG()":"096a4317","mSTEUR()":"633aa38c","mTBILL()":"7b1395a3","mUSDC()":"f89ec5f5","mUSDT()":"71e35a8e","mUSDY()":"d6e76358","mUSDe()":"cf3ca7a8","mWAVAX()":"1822efde","mWBTC()":"4abea58b","mWETH()":"9da3cb0a","mWMATIC()":"90c9b30a","mWSOL()":"ee8dd254","mcbETH()":"199d469a","mintLiquidity(address,address,uint256)":"3fc3db59","mrETH()":"a574d794","mstETH()":"8f008d58","mwstETH()":"b38c3647"},"id":4}