{"abi":[{"type":"constructor","inputs":[],"stateMutability":"nonpayable"},{"type":"function","name":"COOLDOWN_PERIOD","inputs":[],"outputs":[{"name":"","type":"uint256","internalType":"uint256"}],"stateMutability":"view"},{"type":"function","name":"addToken","inputs":[{"name":"token","type":"address","internalType":"address"},{"name":"amount","type":"uint256","internalType":"uint256"}],"outputs":[],"stateMutability":"nonpayable"},{"type":"function","name":"batchAddTokens","inputs":[{"name":"_tokens","type":"address[]","internalType":"address[]"},{"name":"_amounts","type":"uint256[]","internalType":"uint256[]"}],"outputs":[],"stateMutability":"nonpayable"},{"type":"function","name":"canClaim","inputs":[{"name":"user","type":"address","internalType":"address"}],"outputs":[{"name":"","type":"bool","internalType":"bool"}],"stateMutability":"view"},{"type":"function","name":"claimAll","inputs":[],"outputs":[],"stateMutability":"nonpayable"},{"type":"function","name":"getAllTokens","inputs":[],"outputs":[{"name":"","type":"address[]","internalType":"address[]"}],"stateMutability":"view"},{"type":"function","name":"getTokenCount","inputs":[],"outputs":[{"name":"","type":"uint256","internalType":"uint256"}],"stateMutability":"view"},{"type":"function","name":"lastClaimTime","inputs":[{"name":"","type":"address","internalType":"address"}],"outputs":[{"name":"","type":"uint256","internalType":"uint256"}],"stateMutability":"view"},{"type":"function","name":"mintAmounts","inputs":[{"name":"","type":"address","internalType":"address"}],"outputs":[{"name":"","type":"uint256","internalType":"uint256"}],"stateMutability":"view"},{"type":"function","name":"owner","inputs":[],"outputs":[{"name":"","type":"address","internalType":"address"}],"stateMutability":"view"},{"type":"function","name":"renounceOwnership","inputs":[],"outputs":[],"stateMutability":"nonpayable"},{"type":"function","name":"setMintAmount","inputs":[{"name":"token","type":"address","internalType":"address"},{"name":"amount","type":"uint256","internalType":"uint256"}],"outputs":[],"stateMutability":"nonpayable"},{"type":"function","name":"timeUntilNextClaim","inputs":[{"name":"user","type":"address","internalType":"address"}],"outputs":[{"name":"","type":"uint256","internalType":"uint256"}],"stateMutability":"view"},{"type":"function","name":"tokens","inputs":[{"name":"","type":"uint256","internalType":"uint256"}],"outputs":[{"name":"","type":"address","internalType":"address"}],"stateMutability":"view"},{"type":"function","name":"transferOwnership","inputs":[{"name":"newOwner","type":"address","internalType":"address"}],"outputs":[],"stateMutability":"nonpayable"},{"type":"event","name":"MintAmountUpdated","inputs":[{"name":"token","type":"address","indexed":true,"internalType":"address"},{"name":"newAmount","type":"uint256","indexed":false,"internalType":"uint256"}],"anonymous":false},{"type":"event","name":"OwnershipTransferred","inputs":[{"name":"previousOwner","type":"address","indexed":true,"internalType":"address"},{"name":"newOwner","type":"address","indexed":true,"internalType":"address"}],"anonymous":false},{"type":"event","name":"TokenAdded","inputs":[{"name":"token","type":"address","indexed":true,"internalType":"address"},{"name":"mintAmount","type":"uint256","indexed":false,"internalType":"uint256"}],"anonymous":false},{"type":"event","name":"TokensClaimed","inputs":[{"name":"user","type":"address","indexed":true,"internalType":"address"},{"name":"timestamp","type":"uint256","indexed":false,"internalType":"uint256"}],"anonymous":false},{"type":"error","name":"CooldownNotElapsed","inputs":[{"name":"timeRemaining","type":"uint256","internalType":"uint256"}]},{"type":"error","name":"InvalidAmount","inputs":[]},{"type":"error","name":"InvalidToken","inputs":[]},{"type":"error","name":"OwnableInvalidOwner","inputs":[{"name":"owner","type":"address","internalType":"address"}]},{"type":"error","name":"OwnableUnauthorizedAccount","inputs":[{"name":"account","type":"address","internalType":"address"}]},{"type":"error","name":"TokenAlreadyAdded","inputs":[]}],"bytecode":{"object":"0x6080604052348015600e575f80fd5b503380603357604051631e4fbdf760e01b81525f600482015260240160405180910390fd5b603a81603f565b50608e565b5f80546001600160a01b038381166001600160a01b0319831681178455604051919092169283917f8be0079c531659141344cd1fd0a4f28419497f9722a3daafe3b4186f6b6457e09190a35050565b610b9d8061009b5f395ff3fe608060405234801561000f575f80fd5b50600436106100f0575f3560e01c80638da5cb5b11610093578063b77cf9c611610063578063b77cf9c6146101e2578063bf3506c114610201578063d1058e5914610224578063f2fde38b1461022c575f80fd5b80638da5cb5b1461018d57806392d82dbe1461019d578063a1119867146101b0578063af81c5b9146101cf575f80fd5b806350bcb11f116100ce57806350bcb11f146101525780636e99d52f14610165578063715018a61461017d57806378a8956714610185575f80fd5b80632a5c792a146100f457806331650215146101125780634f64b2be14610127575b5f80fd5b6100fc61023f565b604051610109919061099a565b60405180910390f35b610125610120366004610a2d565b61029f565b005b61013a610135366004610a99565b6104df565b6040516001600160a01b039091168152602001610109565b610125610160366004610acb565b610507565b61016f6201518081565b604051908152602001610109565b61012561059e565b60015461016f565b5f546001600160a01b031661013a565b61016f6101ab366004610af3565b6105b1565b61016f6101be366004610af3565b60026020525f908152604090205481565b6101256101dd366004610acb565b61060a565b61016f6101f0366004610af3565b60036020525f908152604090205481565b61021461020f366004610af3565b610725565b6040519015158152602001610109565b61012561077a565b61012561023a366004610af3565b6108d5565b6060600180548060200260200160405190810160405280929190818152602001828054801561029557602002820191905f5260205f20905b81546001600160a01b03168152600190910190602001808311610277575b5050505050905090565b6102a7610912565b8281146102fb5760405162461bcd60e51b815260206004820152600f60248201527f4c656e677468206d69736d61746368000000000000000000000000000000000060448201526064015b60405180910390fd5b5f5b838110156104d8575f85858381811061031857610318610b13565b905060200201602081019061032d9190610af3565b6001600160a01b0316036103545760405163c1ab6dc160e01b815260040160405180910390fd5b82828281811061036657610366610b13565b905060200201355f0361038c5760405163162908e360e11b815260040160405180910390fd5b60018585838181106103a0576103a0610b13565b90506020020160208101906103b59190610af3565b81546001810183555f9283526020909220909101805473ffffffffffffffffffffffffffffffffffffffff19166001600160a01b0390921691909117905582828281811061040557610405610b13565b9050602002013560025f87878581811061042157610421610b13565b90506020020160208101906104369190610af3565b6001600160a01b0316815260208101919091526040015f205584848281811061046157610461610b13565b90506020020160208101906104769190610af3565b6001600160a01b03167ff4c563a3ea86ff1f4275e8c207df0375a51963f2b831b7bf4da8be938d92876c8484848181106104b2576104b2610b13565b905060200201356040516104c891815260200190565b60405180910390a26001016102fd565b5050505050565b600181815481106104ee575f80fd5b5f918252602090912001546001600160a01b0316905081565b61050f610912565b6001600160a01b0382165f9081526002602052604081205490036105465760405163c1ab6dc160e01b815260040160405180910390fd5b6001600160a01b0382165f8181526002602052604090819020839055517f7eb7867d282cdf63a57a6b4423b58684ffe62010d3adb4cc14fea93623f30b17906105929084815260200190565b60405180910390a25050565b6105a6610912565b6105af5f61093e565b565b6001600160a01b0381165f908152600360205260408120548082036105d857505f92915050565b5f6105e66201518083610b3b565b90508042106105f857505f9392505050565b6106024282610b54565b949350505050565b610612610912565b6001600160a01b0382166106395760405163c1ab6dc160e01b815260040160405180910390fd5b6001600160a01b0382165f908152600260205260409020541561066f5760405163630b374b60e01b815260040160405180910390fd5b805f0361068f5760405163162908e360e11b815260040160405180910390fd5b600180548082019091557fb10e2d527612073b26eecdfd717e6a320cf44b4afac2b0732d9fcbe2b7fa0cf601805473ffffffffffffffffffffffffffffffffffffffff19166001600160a01b0384169081179091555f8181526002602090815260409182902084905590518381527ff4c563a3ea86ff1f4275e8c207df0375a51963f2b831b7bf4da8be938d92876c9101610592565b6001600160a01b0381165f90815260036020526040812054810361074b57506001919050565b6001600160a01b0382165f90815260036020526040902054610771906201518090610b3b565b42101592915050565b335f90815260036020526040812054906107948242610b54565b905081158015906107a757506201518081105b156107d5576107b98162015180610b54565b60405163e3c9f05560e01b81526004016102f291815260200190565b335f908152600360205260408120429055600154905b8181101561089a575f6001828154811061080757610807610b13565b5f9182526020808320909101546001600160a01b031680835260029091526040909120549091508015610890576040516340c10f1960e01b8152336004820152602481018290526001600160a01b038316906340c10f19906044015f604051808303815f87803b158015610879575f80fd5b505af115801561088b573d5f803e3d5ffd5b505050505b50506001016107eb565b5060405142815233907f896e034966eaaf1adc54acc0f257056febbd300c9e47182cf761982cf1f5e4309060200160405180910390a2505050565b6108dd610912565b6001600160a01b03811661090657604051631e4fbdf760e01b81525f60048201526024016102f2565b61090f8161093e565b50565b5f546001600160a01b031633146105af5760405163118cdaa760e01b81523360048201526024016102f2565b5f80546001600160a01b0383811673ffffffffffffffffffffffffffffffffffffffff19831681178455604051919092169283917f8be0079c531659141344cd1fd0a4f28419497f9722a3daafe3b4186f6b6457e09190a35050565b602080825282518282018190525f918401906040840190835b818110156109da5783516001600160a01b03168352602093840193909201916001016109b3565b509095945050505050565b5f8083601f8401126109f5575f80fd5b50813567ffffffffffffffff811115610a0c575f80fd5b6020830191508360208260051b8501011115610a26575f80fd5b9250929050565b5f805f8060408587031215610a40575f80fd5b843567ffffffffffffffff811115610a56575f80fd5b610a62878288016109e5565b909550935050602085013567ffffffffffffffff811115610a81575f80fd5b610a8d878288016109e5565b95989497509550505050565b5f60208284031215610aa9575f80fd5b5035919050565b80356001600160a01b0381168114610ac6575f80fd5b919050565b5f8060408385031215610adc575f80fd5b610ae583610ab0565b946020939093013593505050565b5f60208284031215610b03575f80fd5b610b0c82610ab0565b9392505050565b634e487b7160e01b5f52603260045260245ffd5b634e487b7160e01b5f52601160045260245ffd5b80820180821115610b4e57610b4e610b27565b92915050565b81810381811115610b4e57610b4e610b2756fea264697066735822122058a0728e3a074f3daac32be96318c3aa431e072e4e2cff260fe048b1695439c764736f6c634300081a0033","linkReferences":{}},"methodIdentifiers":{"COOLDOWN_PERIOD()":"6e99d52f","addToken(address,uint256)":"af81c5b9","batchAddTokens(address[],uint256[])":"31650215","canClaim(address)":"bf3506c1","claimAll()":"d1058e59","getAllTokens()":"2a5c792a","getTokenCount()":"78a89567","lastClaimTime(address)":"b77cf9c6","mintAmounts(address)":"a1119867","owner()":"8da5cb5b","renounceOwnership()":"715018a6","setMintAmount(address,uint256)":"50bcb11f","timeUntilNextClaim(address)":"92d82dbe","tokens(uint256)":"4f64b2be","transferOwnership(address)":"f2fde38b"},"id":1}