{"abi":[{"type":"constructor","inputs":[{"name":"name_","type":"string","internalType":"string"},{"name":"symbol_","type":"string","internalType":"string"},{"name":"decimals_","type":"uint8","internalType":"uint8"},{"name":"faucet_","type":"address","internalType":"address"}],"stateMutability":"nonpayable"},{"type":"function","name":"allowance","inputs":[{"name":"owner","type":"address","internalType":"address"},{"name":"spender","type":"address","internalType":"address"}],"outputs":[{"name":"","type":"uint256","internalType":"uint256"}],"stateMutability":"view"},{"type":"function","name":"approve","inputs":[{"name":"spender","type":"address","internalType":"address"},{"name":"value","type":"uint256","internalType":"uint256"}],"outputs":[{"name":"","type":"bool","internalType":"bool"}],"stateMutability":"nonpayable"},{"type":"function","name":"balanceOf","inputs":[{"name":"account","type":"address","internalType":"address"}],"outputs":[{"name":"","type":"uint256","internalType":"uint256"}],"stateMutability":"view"},{"type":"function","name":"burn","inputs":[{"name":"amount","type":"uint256","internalType":"uint256"}],"outputs":[],"stateMutability":"nonpayable"},{"type":"function","name":"decimals","inputs":[],"outputs":[{"name":"","type":"uint8","internalType":"uint8"}],"stateMutability":"view"},{"type":"function","name":"faucet","inputs":[],"outputs":[{"name":"","type":"address","internalType":"address"}],"stateMutability":"view"},{"type":"function","name":"mint","inputs":[{"name":"to","type":"address","internalType":"address"},{"name":"amount","type":"uint256","internalType":"uint256"}],"outputs":[],"stateMutability":"nonpayable"},{"type":"function","name":"name","inputs":[],"outputs":[{"name":"","type":"string","internalType":"string"}],"stateMutability":"view"},{"type":"function","name":"symbol","inputs":[],"outputs":[{"name":"","type":"string","internalType":"string"}],"stateMutability":"view"},{"type":"function","name":"totalSupply","inputs":[],"outputs":[{"name":"","type":"uint256","internalType":"uint256"}],"stateMutability":"view"},{"type":"function","name":"transfer","inputs":[{"name":"to","type":"address","internalType":"address"},{"name":"value","type":"uint256","internalType":"uint256"}],"outputs":[{"name":"","type":"bool","internalType":"bool"}],"stateMutability":"nonpayable"},{"type":"function","name":"transferFrom","inputs":[{"name":"from","type":"address","internalType":"address"},{"name":"to","type":"address","internalType":"address"},{"name":"value","type":"uint256","internalType":"uint256"}],"outputs":[{"name":"","type":"bool","internalType":"bool"}],"stateMutability":"nonpayable"},{"type":"event","name":"Approval","inputs":[{"name":"owner","type":"address","indexed":true,"internalType":"address"},{"name":"spender","type":"address","indexed":true,"internalType":"address"},{"name":"value","type":"uint256","indexed":false,"internalType":"uint256"}],"anonymous":false},{"type":"event","name":"Transfer","inputs":[{"name":"from","type":"address","indexed":true,"internalType":"address"},{"name":"to","type":"address","indexed":true,"internalType":"address"},{"name":"value","type":"uint256","indexed":false,"internalType":"uint256"}],"anonymous":false},{"type":"error","name":"ERC20InsufficientAllowance","inputs":[{"name":"spender","type":"address","internalType":"address"},{"name":"allowance","type":"uint256","internalType":"uint256"},{"name":"needed","type":"uint256","internalType":"uint256"}]},{"type":"error","name":"ERC20InsufficientBalance","inputs":[{"name":"sender","type":"address","internalType":"address"},{"name":"balance","type":"uint256","internalType":"uint256"},{"name":"needed","type":"uint256","internalType":"uint256"}]},{"type":"error","name":"ERC20InvalidApprover","inputs":[{"name":"approver","type":"address","internalType":"address"}]},{"type":"error","name":"ERC20InvalidReceiver","inputs":[{"name":"receiver","type":"address","internalType":"address"}]},{"type":"error","name":"ERC20InvalidSender","inputs":[{"name":"sender","type":"address","internalType":"address"}]},{"type":"error","name":"ERC20InvalidSpender","inputs":[{"name":"spender","type":"address","internalType":"address"}]},{"type":"error","name":"OnlyFaucet","inputs":[]}],"bytecode":{"object":"0x60c060405234801561000f575f80fd5b50604051610b94380380610b9483398101604081905261002e91610105565b8383600361003c8382610223565b5060046100498282610223565b50505060ff9091166080526001600160a01b031660a052506102dd9050565b634e487b7160e01b5f52604160045260245ffd5b5f82601f83011261008b575f80fd5b81516001600160401b038111156100a4576100a4610068565b604051601f8201601f19908116603f011681016001600160401b03811182821017156100d2576100d2610068565b6040528181528382016020018510156100e9575f80fd5b8160208501602083015e5f918101602001919091529392505050565b5f805f8060808587031215610118575f80fd5b84516001600160401b0381111561012d575f80fd5b6101398782880161007c565b602087015190955090506001600160401b03811115610156575f80fd5b6101628782880161007c565b935050604085015160ff81168114610178575f80fd5b60608601519092506001600160a01b0381168114610194575f80fd5b939692955090935050565b600181811c908216806101b357607f821691505b6020821081036101d157634e487b7160e01b5f52602260045260245ffd5b50919050565b601f82111561021e57805f5260205f20601f840160051c810160208510156101fc5750805b601f840160051c820191505b8181101561021b575f8155600101610208565b50505b505050565b81516001600160401b0381111561023c5761023c610068565b6102508161024a845461019f565b846101d7565b6020601f821160018114610282575f831561026b5750848201515b5f19600385901b1c1916600184901b17845561021b565b5f84815260208120601f198516915b828110156102b15787850151825560209485019460019092019101610291565b50848210156102ce57868401515f19600387901b60f8161c191681555b50505050600190811b01905550565b60805160a05161088f6103055f395f8181610212015261032301525f610140015261088f5ff3fe608060405234801561000f575f80fd5b50600436106100cf575f3560e01c806342966c681161007d578063a9059cbb11610058578063a9059cbb146101c2578063dd62ed3e146101d5578063de5f72fd1461020d575f80fd5b806342966c681461017f57806370a082311461019257806395d89b41146101ba575f80fd5b806323b872dd116100ad57806323b872dd14610126578063313ce5671461013957806340c10f191461016a575f80fd5b806306fdde03146100d3578063095ea7b3146100f157806318160ddd14610114575b5f80fd5b6100db61024c565b6040516100e891906106e8565b60405180910390f35b6101046100ff366004610738565b6102dc565b60405190151581526020016100e8565b6002545b6040519081526020016100e8565b610104610134366004610760565b6102f5565b60405160ff7f00000000000000000000000000000000000000000000000000000000000000001681526020016100e8565b61017d610178366004610738565b610318565b005b61017d61018d36600461079a565b61036f565b6101186101a03660046107b1565b6001600160a01b03165f9081526020819052604090205490565b6100db61037c565b6101046101d0366004610738565b61038b565b6101186101e33660046107d1565b6001600160a01b039182165f90815260016020908152604080832093909416825291909152205490565b6102347f000000000000000000000000000000000000000000000000000000000000000081565b6040516001600160a01b0390911681526020016100e8565b60606003805461025b90610802565b80601f016020809104026020016040519081016040528092919081815260200182805461028790610802565b80156102d25780601f106102a9576101008083540402835291602001916102d2565b820191905f5260205f20905b8154815290600101906020018083116102b557829003601f168201915b5050505050905090565b5f336102e9818585610398565b60019150505b92915050565b5f336103028582856103aa565b61030d85858561042b565b506001949350505050565b336001600160a01b037f0000000000000000000000000000000000000000000000000000000000000000161461036157604051639c51867b60e01b815260040160405180910390fd5b61036b8282610488565b5050565b61037933826104bc565b50565b60606004805461025b90610802565b5f336102e981858561042b565b6103a583838360016104f0565b505050565b6001600160a01b038381165f908152600160209081526040808320938616835292905220545f19811015610425578181101561041757604051637dc7a0d960e11b81526001600160a01b038416600482015260248101829052604481018390526064015b60405180910390fd5b61042584848484035f6104f0565b50505050565b6001600160a01b03831661045457604051634b637e8f60e11b81525f600482015260240161040e565b6001600160a01b03821661047d5760405163ec442f0560e01b81525f600482015260240161040e565b6103a58383836105c2565b6001600160a01b0382166104b15760405163ec442f0560e01b81525f600482015260240161040e565b61036b5f83836105c2565b6001600160a01b0382166104e557604051634b637e8f60e11b81525f600482015260240161040e565b61036b825f836105c2565b6001600160a01b0384166105195760405163e602df0560e01b81525f600482015260240161040e565b6001600160a01b03831661054257604051634a1406b160e11b81525f600482015260240161040e565b6001600160a01b038085165f908152600160209081526040808320938716835292905220829055801561042557826001600160a01b0316846001600160a01b03167f8c5be1e5ebec7d5bd14f71427d1e84f3dd0314c0f7b2291e5b200ac8c7c3b925846040516105b491815260200190565b60405180910390a350505050565b6001600160a01b0383166105ec578060025f8282546105e1919061083a565b9091555061065c9050565b6001600160a01b0383165f908152602081905260409020548181101561063e5760405163391434e360e21b81526001600160a01b0385166004820152602481018290526044810183905260640161040e565b6001600160a01b0384165f9081526020819052604090209082900390555b6001600160a01b03821661067857600280548290039055610696565b6001600160a01b0382165f9081526020819052604090208054820190555b816001600160a01b0316836001600160a01b03167fddf252ad1be2c89b69c2b068fc378daa952ba7f163c4a11628f55a4df523b3ef836040516106db91815260200190565b60405180910390a3505050565b602081525f82518060208401528060208501604085015e5f604082850101526040601f19601f83011684010191505092915050565b80356001600160a01b0381168114610733575f80fd5b919050565b5f8060408385031215610749575f80fd5b6107528361071d565b946020939093013593505050565b5f805f60608486031215610772575f80fd5b61077b8461071d565b92506107896020850161071d565b929592945050506040919091013590565b5f602082840312156107aa575f80fd5b5035919050565b5f602082840312156107c1575f80fd5b6107ca8261071d565b9392505050565b5f80604083850312156107e2575f80fd5b6107eb8361071d565b91506107f96020840161071d565b90509250929050565b600181811c9082168061081657607f821691505b60208210810361083457634e487b7160e01b5f52602260045260245ffd5b50919050565b808201808211156102ef57634e487b7160e01b5f52601160045260245ffdfea2646970667358221220a53bcd461e5f9abe4619b9ddbfc1d4d949f6aea58ff19d11bcf27166709cdd1764736f6c634300081a0033","linkReferences":{}},"methodIdentifiers":{"allowance(address,address)":"dd62ed3e","approve(address,uint256)":"095ea7b3","balanceOf(address)":"70a08231","burn(uint256)":"42966c68","decimals()":"313ce567","faucet()":"de5f72fd","mint(address,uint256)":"40c10f19","name()":"06fdde03","symbol()":"95d89b41","totalSupply()":"18160ddd","transfer(address,uint256)":"a9059cbb","transferFrom(address,address,uint256)":"23b872dd"},"id":3}